{
  "_format": "hh-sol-artifact-1",
  "contractName": "DTweetNFT",
  "sourceName": "contracts/DTweetNFT.sol",
  "abi": [
    {
      "inputs": [],
      "stateMutability": "nonpayable",
      "type": "constructor"
    },
    {
      "anonymous": false,
      "inputs": [
        {
          "indexed": true,
          "internalType": "address",
          "name": "owner",
          "type": "address"
        },
        {
          "indexed": true,
          "internalType": "address",
          "name": "approved",
          "type": "address"
        },
        {
          "indexed": true,
          "internalType": "uint256",
          "name": "tokenId",
          "type": "uint256"
        }
      ],
      "name": "Approval",
      "type": "event"
    },
    {
      "anonymous": false,
      "inputs": [
        {
          "indexed": true,
          "internalType": "address",
          "name": "owner",
          "type": "address"
        },
        {
          "indexed": true,
          "internalType": "address",
          "name": "operator",
          "type": "address"
        },
        {
          "indexed": false,
          "internalType": "bool",
          "name": "approved",
          "type": "bool"
        }
      ],
      "name": "ApprovalForAll",
      "type": "event"
    },
    {
      "anonymous": false,
      "inputs": [
        {
          "indexed": true,
          "internalType": "bytes32",
          "name": "role",
          "type": "bytes32"
        },
        {
          "indexed": true,
          "internalType": "bytes32",
          "name": "previousAdminRole",
          "type": "bytes32"
        },
        {
          "indexed": true,
          "internalType": "bytes32",
          "name": "newAdminRole",
          "type": "bytes32"
        }
      ],
      "name": "RoleAdminChanged",
      "type": "event"
    },
    {
      "anonymous": false,
      "inputs": [
        {
          "indexed": true,
          "internalType": "bytes32",
          "name": "role",
          "type": "bytes32"
        },
        {
          "indexed": true,
          "internalType": "address",
          "name": "account",
          "type": "address"
        },
        {
          "indexed": true,
          "internalType": "address",
          "name": "sender",
          "type": "address"
        }
      ],
      "name": "RoleGranted",
      "type": "event"
    },
    {
      "anonymous": false,
      "inputs": [
        {
          "indexed": true,
          "internalType": "bytes32",
          "name": "role",
          "type": "bytes32"
        },
        {
          "indexed": true,
          "internalType": "address",
          "name": "account",
          "type": "address"
        },
        {
          "indexed": true,
          "internalType": "address",
          "name": "sender",
          "type": "address"
        }
      ],
      "name": "RoleRevoked",
      "type": "event"
    },
    {
      "anonymous": false,
      "inputs": [
        {
          "indexed": true,
          "internalType": "uint256",
          "name": "currentId",
          "type": "uint256"
        },
        {
          "indexed": false,
          "internalType": "string",
          "name": "tokenURI",
          "type": "string"
        },
        {
          "indexed": true,
          "internalType": "address",
          "name": "minter",
          "type": "address"
        }
      ],
      "name": "TokenCreated",
      "type": "event"
    },
    {
      "anonymous": false,
      "inputs": [
        {
          "indexed": true,
          "internalType": "address",
          "name": "from",
          "type": "address"
        },
        {
          "indexed": true,
          "internalType": "address",
          "name": "to",
          "type": "address"
        },
        {
          "indexed": true,
          "internalType": "uint256",
          "name": "tokenId",
          "type": "uint256"
        }
      ],
      "name": "Transfer",
      "type": "event"
    },
    {
      "inputs": [],
      "name": "DEFAULT_ADMIN_ROLE",
      "outputs": [
        {
          "internalType": "bytes32",
          "name": "",
          "type": "bytes32"
        }
      ],
      "stateMutability": "view",
      "type": "function"
    },
    {
      "inputs": [],
      "name": "MINTER_ROLE",
      "outputs": [
        {
          "internalType": "bytes32",
          "name": "",
          "type": "bytes32"
        }
      ],
      "stateMutability": "view",
      "type": "function"
    },
    {
      "inputs": [
        {
          "internalType": "address",
          "name": "to",
          "type": "address"
        },
        {
          "internalType": "uint256",
          "name": "tokenId",
          "type": "uint256"
        }
      ],
      "name": "approve",
      "outputs": [],
      "stateMutability": "nonpayable",
      "type": "function"
    },
    {
      "inputs": [
        {
          "internalType": "uint256",
          "name": "",
          "type": "uint256"
        }
      ],
      "name": "arrayOffAllTweets",
      "outputs": [
        {
          "internalType": "uint16",
          "name": "tokenID",
          "type": "uint16"
        },
        {
          "internalType": "string",
          "name": "tokenURI",
          "type": "string"
        },
        {
          "internalType": "address",
          "name": "owner",
          "type": "address"
        }
      ],
      "stateMutability": "view",
      "type": "function"
    },
    {
      "inputs": [
        {
          "internalType": "address",
          "name": "owner",
          "type": "address"
        }
      ],
      "name": "balanceOf",
      "outputs": [
        {
          "internalType": "uint256",
          "name": "",
          "type": "uint256"
        }
      ],
      "stateMutability": "view",
      "type": "function"
    },
    {
      "inputs": [],
      "name": "getAllMintedTokens",
      "outputs": [
        {
          "components": [
            {
              "internalType": "uint16",
              "name": "tokenID",
              "type": "uint16"
            },
            {
              "internalType": "string",
              "name": "tokenURI",
              "type": "string"
            },
            {
              "internalType": "address",
              "name": "owner",
              "type": "address"
            }
          ],
          "internalType": "struct DTweetNFT.Tweet[]",
          "name": "",
          "type": "tuple[]"
        }
      ],
      "stateMutability": "view",
      "type": "function"
    },
    {
      "inputs": [
        {
          "internalType": "uint256",
          "name": "tokenId",
          "type": "uint256"
        }
      ],
      "name": "getApproved",
      "outputs": [
        {
          "internalType": "address",
          "name": "",
          "type": "address"
        }
      ],
      "stateMutability": "view",
      "type": "function"
    },
    {
      "inputs": [
        {
          "internalType": "bytes32",
          "name": "role",
          "type": "bytes32"
        }
      ],
      "name": "getRoleAdmin",
      "outputs": [
        {
          "internalType": "bytes32",
          "name": "",
          "type": "bytes32"
        }
      ],
      "stateMutability": "view",
      "type": "function"
    },
    {
      "inputs": [
        {
          "internalType": "bytes32",
          "name": "role",
          "type": "bytes32"
        },
        {
          "internalType": "address",
          "name": "account",
          "type": "address"
        }
      ],
      "name": "grantRole",
      "outputs": [],
      "stateMutability": "nonpayable",
      "type": "function"
    },
    {
      "inputs": [
        {
          "internalType": "bytes32",
          "name": "role",
          "type": "bytes32"
        },
        {
          "internalType": "address",
          "name": "account",
          "type": "address"
        }
      ],
      "name": "hasRole",
      "outputs": [
        {
          "internalType": "bool",
          "name": "",
          "type": "bool"
        }
      ],
      "stateMutability": "view",
      "type": "function"
    },
    {
      "inputs": [
        {
          "internalType": "address",
          "name": "owner",
          "type": "address"
        },
        {
          "internalType": "address",
          "name": "operator",
          "type": "address"
        }
      ],
      "name": "isApprovedForAll",
      "outputs": [
        {
          "internalType": "bool",
          "name": "",
          "type": "bool"
        }
      ],
      "stateMutability": "view",
      "type": "function"
    },
    {
      "inputs": [
        {
          "internalType": "address",
          "name": "_account",
          "type": "address"
        },
        {
          "internalType": "string",
          "name": "_tokenURI",
          "type": "string"
        }
      ],
      "name": "mintTweet",
      "outputs": [
        {
          "internalType": "uint256",
          "name": "",
          "type": "uint256"
        }
      ],
      "stateMutability": "nonpayable",
      "type": "function"
    },
    {
      "inputs": [],
      "name": "name",
      "outputs": [
        {
          "internalType": "string",
          "name": "",
          "type": "string"
        }
      ],
      "stateMutability": "view",
      "type": "function"
    },
    {
      "inputs": [
        {
          "internalType": "uint256",
          "name": "tokenId",
          "type": "uint256"
        }
      ],
      "name": "ownerOf",
      "outputs": [
        {
          "internalType": "address",
          "name": "",
          "type": "address"
        }
      ],
      "stateMutability": "view",
      "type": "function"
    },
    {
      "inputs": [
        {
          "internalType": "bytes32",
          "name": "role",
          "type": "bytes32"
        },
        {
          "internalType": "address",
          "name": "account",
          "type": "address"
        }
      ],
      "name": "renounceRole",
      "outputs": [],
      "stateMutability": "nonpayable",
      "type": "function"
    },
    {
      "inputs": [
        {
          "internalType": "bytes32",
          "name": "role",
          "type": "bytes32"
        },
        {
          "internalType": "address",
          "name": "account",
          "type": "address"
        }
      ],
      "name": "revokeRole",
      "outputs": [],
      "stateMutability": "nonpayable",
      "type": "function"
    },
    {
      "inputs": [
        {
          "internalType": "address",
          "name": "from",
          "type": "address"
        },
        {
          "internalType": "address",
          "name": "to",
          "type": "address"
        },
        {
          "internalType": "uint256",
          "name": "tokenId",
          "type": "uint256"
        }
      ],
      "name": "safeTransferFrom",
      "outputs": [],
      "stateMutability": "nonpayable",
      "type": "function"
    },
    {
      "inputs": [
        {
          "internalType": "address",
          "name": "from",
          "type": "address"
        },
        {
          "internalType": "address",
          "name": "to",
          "type": "address"
        },
        {
          "internalType": "uint256",
          "name": "tokenId",
          "type": "uint256"
        },
        {
          "internalType": "bytes",
          "name": "_data",
          "type": "bytes"
        }
      ],
      "name": "safeTransferFrom",
      "outputs": [],
      "stateMutability": "nonpayable",
      "type": "function"
    },
    {
      "inputs": [
        {
          "internalType": "address",
          "name": "operator",
          "type": "address"
        },
        {
          "internalType": "bool",
          "name": "approved",
          "type": "bool"
        }
      ],
      "name": "setApprovalForAll",
      "outputs": [],
      "stateMutability": "nonpayable",
      "type": "function"
    },
    {
      "inputs": [
        {
          "internalType": "bytes4",
          "name": "interfaceId",
          "type": "bytes4"
        }
      ],
      "name": "supportsInterface",
      "outputs": [
        {
          "internalType": "bool",
          "name": "",
          "type": "bool"
        }
      ],
      "stateMutability": "view",
      "type": "function"
    },
    {
      "inputs": [],
      "name": "symbol",
      "outputs": [
        {
          "internalType": "string",
          "name": "",
          "type": "string"
        }
      ],
      "stateMutability": "view",
      "type": "function"
    },
    {
      "inputs": [
        {
          "internalType": "uint256",
          "name": "tokenId",
          "type": "uint256"
        }
      ],
      "name": "tokenURI",
      "outputs": [
        {
          "internalType": "string",
          "name": "",
          "type": "string"
        }
      ],
      "stateMutability": "view",
      "type": "function"
    },
    {
      "inputs": [
        {
          "internalType": "address",
          "name": "from",
          "type": "address"
        },
        {
          "internalType": "address",
          "name": "to",
          "type": "address"
        },
        {
          "internalType": "uint256",
          "name": "tokenId",
          "type": "uint256"
        }
      ],
      "name": "transferFrom",
      "outputs": [],
      "stateMutability": "nonpayable",
      "type": "function"
    }
  ],
  "bytecode": "0x60806040523480156200001157600080fd5b506040518060400160405280600b81526020017f442d54776565742d4e46540000000000000000000000000000000000000000008152506040518060400160405280600381526020017f44544e00000000000000000000000000000000000000000000000000000000008152508160009080519060200190620000969291906200024f565b508060019080519060200190620000af9291906200024f565b505050620000e47f9f2df0fed2c77648de5860a4cc508cd0818c85b8b8a1ab4ceeef8d981c8956a633620000ea60201b60201c565b62000364565b620000fc8282620001dc60201b60201c565b620001d85760016007600084815260200190815260200160002060000160008373ffffffffffffffffffffffffffffffffffffffff1673ffffffffffffffffffffffffffffffffffffffff16815260200190815260200160002060006101000a81548160ff0219169083151502179055506200017d6200024760201b60201c565b73ffffffffffffffffffffffffffffffffffffffff168173ffffffffffffffffffffffffffffffffffffffff16837f2f8788117e7eff1d82e926ec794901d17c78024a50270940304540a733656f0d60405160405180910390a45b5050565b60006007600084815260200190815260200160002060000160008373ffffffffffffffffffffffffffffffffffffffff1673ffffffffffffffffffffffffffffffffffffffff16815260200190815260200160002060009054906101000a900460ff16905092915050565b600033905090565b8280546200025d90620002ff565b90600052602060002090601f016020900481019282620002815760008555620002cd565b82601f106200029c57805160ff1916838001178555620002cd565b82800160010185558215620002cd579182015b82811115620002cc578251825591602001919060010190620002af565b5b509050620002dc9190620002e0565b5090565b5b80821115620002fb576000816000905550600101620002e1565b5090565b600060028204905060018216806200031857607f821691505b602082108114156200032f576200032e62000335565b5b50919050565b7f4e487b7100000000000000000000000000000000000000000000000000000000600052602260045260246000fd5b613d8a80620003746000396000f3fe608060405234801561001057600080fd5b506004361061014d5760003560e01c80636352211e116100c3578063b88d4fde1161007c578063b88d4fde146103c2578063bb00fd07146103de578063c87b56dd14610410578063d539139314610440578063d547741f1461045e578063e985e9c51461047a5761014d565b80636352211e146102da57806370a082311461030a57806391d148541461033a57806395d89b411461036a578063a217fddf14610388578063a22cb465146103a65761014d565b806323b872dd1161011557806323b872dd1461020a578063248a9ca3146102265780632f2ff15d1461025657806336568abe1461027257806342842e0e1461028e578063510a1cba146102aa5761014d565b806301ffc9a71461015257806306fdde0314610182578063080b0179146101a0578063081812fc146101be578063095ea7b3146101ee575b600080fd5b61016c60048036038101906101679190612952565b6104aa565b6040516101799190612f9a565b60405180910390f35b61018a6104bc565b6040516101979190612fd0565b60405180910390f35b6101a861054e565b6040516101b59190612f78565b60405180910390f35b6101d860048036038101906101d391906129ac565b6106b5565b6040516101e59190612f11565b60405180910390f35b610208600480360381019061020391906128a5565b61073a565b005b610224600480360381019061021f9190612733565b610852565b005b610240600480360381019061023b91906128e5565b6108b2565b60405161024d9190612fb5565b60405180910390f35b610270600480360381019061026b9190612912565b6108d2565b005b61028c60048036038101906102879190612912565b6108fb565b005b6102a860048036038101906102a39190612733565b61097e565b005b6102c460048036038101906102bf9190612849565b61099e565b6040516102d19190613270565b60405180910390f35b6102f460048036038101906102ef91906129ac565b610b51565b6040516103019190612f11565b60405180910390f35b610324600480360381019061031f91906126c6565b610c03565b6040516103319190613270565b60405180910390f35b610354600480360381019061034f9190612912565b610cbb565b6040516103619190612f9a565b60405180910390f35b610372610d26565b60405161037f9190612fd0565b60405180910390f35b610390610db8565b60405161039d9190612fb5565b60405180910390f35b6103c060048036038101906103bb9190612809565b610dbf565b005b6103dc60048036038101906103d79190612786565b610dd5565b005b6103f860048036038101906103f391906129ac565b610e37565b60405161040793929190613232565b60405180910390f35b61042a600480360381019061042591906129ac565b610f27565b6040516104379190612fd0565b60405180910390f35b610448611079565b6040516104559190612fb5565b60405180910390f35b61047860048036038101906104739190612912565b61109d565b005b610494600480360381019061048f91906126f3565b6110c6565b6040516104a19190612f9a565b60405180910390f35b60006104b58261115a565b9050919050565b6060600080546104cb906135ac565b80601f01602080910402602001604051908101604052809291908181526020018280546104f7906135ac565b80156105445780601f1061051957610100808354040283529160200191610544565b820191906000526020600020905b81548152906001019060200180831161052757829003601f168201915b5050505050905090565b60606009805480602002602001604051908101604052809291908181526020016000905b828210156106ac57838290600052602060002090600302016040518060600160405290816000820160009054906101000a900461ffff1661ffff1661ffff1681526020016001820180546105c5906135ac565b80601f01602080910402602001604051908101604052809291908181526020018280546105f1906135ac565b801561063e5780601f106106135761010080835404028352916020019161063e565b820191906000526020600020905b81548152906001019060200180831161062157829003601f168201915b505050505081526020016002820160009054906101000a900473ffffffffffffffffffffffffffffffffffffffff1673ffffffffffffffffffffffffffffffffffffffff1673ffffffffffffffffffffffffffffffffffffffff168152505081526020019060010190610572565b50505050905090565b60006106c0826111d4565b6106ff576040517f08c379a00000000000000000000000000000000000000000000000000000000081526004016106f690613192565b60405180910390fd5b6004600083815260200190815260200160002060009054906101000a900473ffffffffffffffffffffffffffffffffffffffff169050919050565b600061074582610b51565b90508073ffffffffffffffffffffffffffffffffffffffff168373ffffffffffffffffffffffffffffffffffffffff1614156107b6576040517f08c379a00000000000000000000000000000000000000000000000000000000081526004016107ad906131d2565b60405180910390fd5b8073ffffffffffffffffffffffffffffffffffffffff166107d5611240565b73ffffffffffffffffffffffffffffffffffffffff1614806108045750610803816107fe611240565b6110c6565b5b610843576040517f08c379a000000000000000000000000000000000000000000000000000000000815260040161083a906130d2565b60405180910390fd5b61084d8383611248565b505050565b61086361085d611240565b82611301565b6108a2576040517f08c379a0000000000000000000000000000000000000000000000000000000008152600401610899906131f2565b60405180910390fd5b6108ad8383836113df565b505050565b600060076000838152602001908152602001600020600101549050919050565b6108db826108b2565b6108ec816108e7611240565b611646565b6108f683836116e3565b505050565b610903611240565b73ffffffffffffffffffffffffffffffffffffffff168173ffffffffffffffffffffffffffffffffffffffff1614610970576040517f08c379a000000000000000000000000000000000000000000000000000000000815260040161096790613212565b60405180910390fd5b61097a82826117c4565b5050565b61099983838360405180602001604052806000815250610dd5565b505050565b60007f9f2df0fed2c77648de5860a4cc508cd0818c85b8b8a1ab4ceeef8d981c8956a66109d2816109cd611240565b611646565b6109dc60086118a6565b60006109e860086118bc565b90506109f8858261ffff166118ca565b610a068161ffff16856118e8565b600960405180606001604052808361ffff1681526020018681526020018773ffffffffffffffffffffffffffffffffffffffff16815250908060018154018082558091505060019003906000526020600020906003020160009091909190915060008201518160000160006101000a81548161ffff021916908361ffff1602179055506020820151816001019080519060200190610aa59291906124c5565b5060408201518160020160006101000a81548173ffffffffffffffffffffffffffffffffffffffff021916908373ffffffffffffffffffffffffffffffffffffffff16021790555050508473ffffffffffffffffffffffffffffffffffffffff168161ffff167f2169fca571ac413a2cd58ee7ce0947380b8aa3a5fc6dab5b6fcc5a5c14a2d3c086604051610b3a9190612fd0565b60405180910390a38061ffff169250505092915050565b6000806002600084815260200190815260200160002060009054906101000a900473ffffffffffffffffffffffffffffffffffffffff169050600073ffffffffffffffffffffffffffffffffffffffff168173ffffffffffffffffffffffffffffffffffffffff161415610bfa576040517f08c379a0000000000000000000000000000000000000000000000000000000008152600401610bf190613112565b60405180910390fd5b80915050919050565b60008073ffffffffffffffffffffffffffffffffffffffff168273ffffffffffffffffffffffffffffffffffffffff161415610c74576040517f08c379a0000000000000000000000000000000000000000000000000000000008152600401610c6b906130f2565b60405180910390fd5b600360008373ffffffffffffffffffffffffffffffffffffffff1673ffffffffffffffffffffffffffffffffffffffff168152602001908152602001600020549050919050565b60006007600084815260200190815260200160002060000160008373ffffffffffffffffffffffffffffffffffffffff1673ffffffffffffffffffffffffffffffffffffffff16815260200190815260200160002060009054906101000a900460ff16905092915050565b606060018054610d35906135ac565b80601f0160208091040260200160405190810160405280929190818152602001828054610d61906135ac565b8015610dae5780601f10610d8357610100808354040283529160200191610dae565b820191906000526020600020905b815481529060010190602001808311610d9157829003601f168201915b5050505050905090565b6000801b81565b610dd1610dca611240565b838361195c565b5050565b610de6610de0611240565b83611301565b610e25576040517f08c379a0000000000000000000000000000000000000000000000000000000008152600401610e1c906131f2565b60405180910390fd5b610e3184848484611ac9565b50505050565b60098181548110610e4757600080fd5b90600052602060002090600302016000915090508060000160009054906101000a900461ffff1690806001018054610e7e906135ac565b80601f0160208091040260200160405190810160405280929190818152602001828054610eaa906135ac565b8015610ef75780601f10610ecc57610100808354040283529160200191610ef7565b820191906000526020600020905b815481529060010190602001808311610eda57829003601f168201915b5050505050908060020160009054906101000a900473ffffffffffffffffffffffffffffffffffffffff16905083565b6060610f32826111d4565b610f71576040517f08c379a0000000000000000000000000000000000000000000000000000000008152600401610f6890613172565b60405180910390fd5b6000600660008481526020019081526020016000208054610f91906135ac565b80601f0160208091040260200160405190810160405280929190818152602001828054610fbd906135ac565b801561100a5780601f10610fdf5761010080835404028352916020019161100a565b820191906000526020600020905b815481529060010190602001808311610fed57829003601f168201915b50505050509050600061101b611b25565b9050600081511415611031578192505050611074565b60008251111561106657808260405160200161104e929190612eb3565b60405160208183030381529060405292505050611074565b61106f84611b3c565b925050505b919050565b7f9f2df0fed2c77648de5860a4cc508cd0818c85b8b8a1ab4ceeef8d981c8956a681565b6110a6826108b2565b6110b7816110b2611240565b611646565b6110c183836117c4565b505050565b6000600560008473ffffffffffffffffffffffffffffffffffffffff1673ffffffffffffffffffffffffffffffffffffffff16815260200190815260200160002060008373ffffffffffffffffffffffffffffffffffffffff1673ffffffffffffffffffffffffffffffffffffffff16815260200190815260200160002060009054906101000a900460ff16905092915050565b60007f7965db0b000000000000000000000000000000000000000000000000000000007bffffffffffffffffffffffffffffffffffffffffffffffffffffffff1916827bffffffffffffffffffffffffffffffffffffffffffffffffffffffff191614806111cd57506111cc82611be3565b5b9050919050565b60008073ffffffffffffffffffffffffffffffffffffffff166002600084815260200190815260200160002060009054906101000a900473ffffffffffffffffffffffffffffffffffffffff1673ffffffffffffffffffffffffffffffffffffffff1614159050919050565b600033905090565b816004600083815260200190815260200160002060006101000a81548173ffffffffffffffffffffffffffffffffffffffff021916908373ffffffffffffffffffffffffffffffffffffffff160217905550808273ffffffffffffffffffffffffffffffffffffffff166112bb83610b51565b73ffffffffffffffffffffffffffffffffffffffff167f8c5be1e5ebec7d5bd14f71427d1e84f3dd0314c0f7b2291e5b200ac8c7c3b92560405160405180910390a45050565b600061130c826111d4565b61134b576040517f08c379a0000000000000000000000000000000000000000000000000000000008152600401611342906130b2565b60405180910390fd5b600061135683610b51565b90508073ffffffffffffffffffffffffffffffffffffffff168473ffffffffffffffffffffffffffffffffffffffff1614806113c557508373ffffffffffffffffffffffffffffffffffffffff166113ad846106b5565b73ffffffffffffffffffffffffffffffffffffffff16145b806113d657506113d581856110c6565b5b91505092915050565b8273ffffffffffffffffffffffffffffffffffffffff166113ff82610b51565b73ffffffffffffffffffffffffffffffffffffffff1614611455576040517f08c379a000000000000000000000000000000000000000000000000000000000815260040161144c90613032565b60405180910390fd5b600073ffffffffffffffffffffffffffffffffffffffff168273ffffffffffffffffffffffffffffffffffffffff1614156114c5576040517f08c379a00000000000000000000000000000000000000000000000000000000081526004016114bc90613072565b60405180910390fd5b6114d0838383611cc5565b6114db600082611248565b6001600360008573ffffffffffffffffffffffffffffffffffffffff1673ffffffffffffffffffffffffffffffffffffffff168152602001908152602001600020600082825461152b9190613480565b925050819055506001600360008473ffffffffffffffffffffffffffffffffffffffff1673ffffffffffffffffffffffffffffffffffffffff1681526020019081526020016000206000828254611582919061339f565b92505081905550816002600083815260200190815260200160002060006101000a81548173ffffffffffffffffffffffffffffffffffffffff021916908373ffffffffffffffffffffffffffffffffffffffff160217905550808273ffffffffffffffffffffffffffffffffffffffff168473ffffffffffffffffffffffffffffffffffffffff167fddf252ad1be2c89b69c2b068fc378daa952ba7f163c4a11628f55a4df523b3ef60405160405180910390a4611641838383611cca565b505050565b6116508282610cbb565b6116df576116758173ffffffffffffffffffffffffffffffffffffffff166014611ccf565b6116838360001c6020611ccf565b604051602001611694929190612ed7565b6040516020818303038152906040526040517f08c379a00000000000000000000000000000000000000000000000000000000081526004016116d69190612fd0565b60405180910390fd5b5050565b6116ed8282610cbb565b6117c05760016007600084815260200190815260200160002060000160008373ffffffffffffffffffffffffffffffffffffffff1673ffffffffffffffffffffffffffffffffffffffff16815260200190815260200160002060006101000a81548160ff021916908315150217905550611765611240565b73ffffffffffffffffffffffffffffffffffffffff168173ffffffffffffffffffffffffffffffffffffffff16837f2f8788117e7eff1d82e926ec794901d17c78024a50270940304540a733656f0d60405160405180910390a45b5050565b6117ce8282610cbb565b156118a25760006007600084815260200190815260200160002060000160008373ffffffffffffffffffffffffffffffffffffffff1673ffffffffffffffffffffffffffffffffffffffff16815260200190815260200160002060006101000a81548160ff021916908315150217905550611847611240565b73ffffffffffffffffffffffffffffffffffffffff168173ffffffffffffffffffffffffffffffffffffffff16837ff6391f5c32d9c69d2a47ea670b442974b53935d1edc7fd64eb21e047a839171b60405160405180910390a45b5050565b6001816000016000828254019250508190555050565b600081600001549050919050565b6118e4828260405180602001604052806000815250611f0b565b5050565b6118f1826111d4565b611930576040517f08c379a000000000000000000000000000000000000000000000000000000000815260040161192790613132565b60405180910390fd5b806006600084815260200190815260200160002090805190602001906119579291906124c5565b505050565b8173ffffffffffffffffffffffffffffffffffffffff168373ffffffffffffffffffffffffffffffffffffffff1614156119cb576040517f08c379a00000000000000000000000000000000000000000000000000000000081526004016119c290613092565b60405180910390fd5b80600560008573ffffffffffffffffffffffffffffffffffffffff1673ffffffffffffffffffffffffffffffffffffffff16815260200190815260200160002060008473ffffffffffffffffffffffffffffffffffffffff1673ffffffffffffffffffffffffffffffffffffffff16815260200190815260200160002060006101000a81548160ff0219169083151502179055508173ffffffffffffffffffffffffffffffffffffffff168373ffffffffffffffffffffffffffffffffffffffff167f17307eab39ab6107e8899845ad3d59bd9653f200f220920489ca2b5937696c3183604051611abc9190612f9a565b60405180910390a3505050565b611ad48484846113df565b611ae084848484611f66565b611b1f576040517f08c379a0000000000000000000000000000000000000000000000000000000008152600401611b1690613012565b60405180910390fd5b50505050565b606060405180602001604052806000815250905090565b6060611b47826111d4565b611b86576040517f08c379a0000000000000000000000000000000000000000000000000000000008152600401611b7d906131b2565b60405180910390fd5b6000611b90611b25565b90506000815111611bb05760405180602001604052806000815250611bdb565b80611bba846120fd565b604051602001611bcb929190612eb3565b6040516020818303038152906040525b915050919050565b60007f80ac58cd000000000000000000000000000000000000000000000000000000007bffffffffffffffffffffffffffffffffffffffffffffffffffffffff1916827bffffffffffffffffffffffffffffffffffffffffffffffffffffffff19161480611cae57507f5b5e139f000000000000000000000000000000000000000000000000000000007bffffffffffffffffffffffffffffffffffffffffffffffffffffffff1916827bffffffffffffffffffffffffffffffffffffffffffffffffffffffff1916145b80611cbe5750611cbd8261225e565b5b9050919050565b505050565b505050565b606060006002836002611ce29190613426565b611cec919061339f565b67ffffffffffffffff811115611d0557611d04613745565b5b6040519080825280601f01601f191660200182016040528015611d375781602001600182028036833780820191505090505b5090507f300000000000000000000000000000000000000000000000000000000000000081600081518110611d6f57611d6e613716565b5b60200101907effffffffffffffffffffffffffffffffffffffffffffffffffffffffffffff1916908160001a9053507f780000000000000000000000000000000000000000000000000000000000000081600181518110611dd357611dd2613716565b5b60200101907effffffffffffffffffffffffffffffffffffffffffffffffffffffffffffff1916908160001a90535060006001846002611e139190613426565b611e1d919061339f565b90505b6001811115611ebd577f3031323334353637383961626364656600000000000000000000000000000000600f861660108110611e5f57611e5e613716565b5b1a60f81b828281518110611e7657611e75613716565b5b60200101907effffffffffffffffffffffffffffffffffffffffffffffffffffffffffffff1916908160001a905350600485901c945080611eb690613582565b9050611e20565b5060008414611f01576040517f08c379a0000000000000000000000000000000000000000000000000000000008152600401611ef890612ff2565b60405180910390fd5b8091505092915050565b611f1583836122c8565b611f226000848484611f66565b611f61576040517f08c379a0000000000000000000000000000000000000000000000000000000008152600401611f5890613012565b60405180910390fd5b505050565b6000611f878473ffffffffffffffffffffffffffffffffffffffff166124a2565b156120f0578373ffffffffffffffffffffffffffffffffffffffff1663150b7a02611fb0611240565b8786866040518563ffffffff1660e01b8152600401611fd29493929190612f2c565b602060405180830381600087803b158015611fec57600080fd5b505af192505050801561201d57506040513d601f19601f8201168201806040525081019061201a919061297f565b60015b6120a0573d806000811461204d576040519150601f19603f3d011682016040523d82523d6000602084013e612052565b606091505b50600081511415612098576040517f08c379a000000000000000000000000000000000000000000000000000000000815260040161208f90613012565b60405180910390fd5b805181602001fd5b63150b7a0260e01b7bffffffffffffffffffffffffffffffffffffffffffffffffffffffff1916817bffffffffffffffffffffffffffffffffffffffffffffffffffffffff1916149150506120f5565b600190505b949350505050565b60606000821415612145576040518060400160405280600181526020017f30000000000000000000000000000000000000000000000000000000000000008152509050612259565b600082905060005b600082146121775780806121609061360f565b915050600a8261217091906133f5565b915061214d565b60008167ffffffffffffffff81111561219357612192613745565b5b6040519080825280601f01601f1916602001820160405280156121c55781602001600182028036833780820191505090505b5090505b60008514612252576001826121de9190613480565b9150600a856121ed9190613658565b60306121f9919061339f565b60f81b81838151811061220f5761220e613716565b5b60200101907effffffffffffffffffffffffffffffffffffffffffffffffffffffffffffff1916908160001a905350600a8561224b91906133f5565b94506121c9565b8093505050505b919050565b60007f01ffc9a7000000000000000000000000000000000000000000000000000000007bffffffffffffffffffffffffffffffffffffffffffffffffffffffff1916827bffffffffffffffffffffffffffffffffffffffffffffffffffffffff1916149050919050565b600073ffffffffffffffffffffffffffffffffffffffff168273ffffffffffffffffffffffffffffffffffffffff161415612338576040517f08c379a000000000000000000000000000000000000000000000000000000000815260040161232f90613152565b60405180910390fd5b612341816111d4565b15612381576040517f08c379a000000000000000000000000000000000000000000000000000000000815260040161237890613052565b60405180910390fd5b61238d60008383611cc5565b6001600360008473ffffffffffffffffffffffffffffffffffffffff1673ffffffffffffffffffffffffffffffffffffffff16815260200190815260200160002060008282546123dd919061339f565b92505081905550816002600083815260200190815260200160002060006101000a81548173ffffffffffffffffffffffffffffffffffffffff021916908373ffffffffffffffffffffffffffffffffffffffff160217905550808273ffffffffffffffffffffffffffffffffffffffff16600073ffffffffffffffffffffffffffffffffffffffff167fddf252ad1be2c89b69c2b068fc378daa952ba7f163c4a11628f55a4df523b3ef60405160405180910390a461249e60008383611cca565b5050565b6000808273ffffffffffffffffffffffffffffffffffffffff163b119050919050565b8280546124d1906135ac565b90600052602060002090601f0160209004810192826124f3576000855561253a565b82601f1061250c57805160ff191683800117855561253a565b8280016001018555821561253a579182015b8281111561253957825182559160200191906001019061251e565b5b509050612547919061254b565b5090565b5b8082111561256457600081600090555060010161254c565b5090565b600061257b612576846132b0565b61328b565b90508281526020810184848401111561259757612596613779565b5b6125a2848285613540565b509392505050565b60006125bd6125b8846132e1565b61328b565b9050828152602081018484840111156125d9576125d8613779565b5b6125e4848285613540565b509392505050565b6000813590506125fb81613ce1565b92915050565b60008135905061261081613cf8565b92915050565b60008135905061262581613d0f565b92915050565b60008135905061263a81613d26565b92915050565b60008151905061264f81613d26565b92915050565b600082601f83011261266a57612669613774565b5b813561267a848260208601612568565b91505092915050565b600082601f83011261269857612697613774565b5b81356126a88482602086016125aa565b91505092915050565b6000813590506126c081613d3d565b92915050565b6000602082840312156126dc576126db613783565b5b60006126ea848285016125ec565b91505092915050565b6000806040838503121561270a57612709613783565b5b6000612718858286016125ec565b9250506020612729858286016125ec565b9150509250929050565b60008060006060848603121561274c5761274b613783565b5b600061275a868287016125ec565b935050602061276b868287016125ec565b925050604061277c868287016126b1565b9150509250925092565b600080600080608085870312156127a05761279f613783565b5b60006127ae878288016125ec565b94505060206127bf878288016125ec565b93505060406127d0878288016126b1565b925050606085013567ffffffffffffffff8111156127f1576127f061377e565b5b6127fd87828801612655565b91505092959194509250565b600080604083850312156128205761281f613783565b5b600061282e858286016125ec565b925050602061283f85828601612601565b9150509250929050565b600080604083850312156128605761285f613783565b5b600061286e858286016125ec565b925050602083013567ffffffffffffffff81111561288f5761288e61377e565b5b61289b85828601612683565b9150509250929050565b600080604083850312156128bc576128bb613783565b5b60006128ca858286016125ec565b92505060206128db858286016126b1565b9150509250929050565b6000602082840312156128fb576128fa613783565b5b600061290984828501612616565b91505092915050565b6000806040838503121561292957612928613783565b5b600061293785828601612616565b9250506020612948858286016125ec565b9150509250929050565b60006020828403121561296857612967613783565b5b60006129768482850161262b565b91505092915050565b60006020828403121561299557612994613783565b5b60006129a384828501612640565b91505092915050565b6000602082840312156129c2576129c1613783565b5b60006129d0848285016126b1565b91505092915050565b60006129e58383612e36565b905092915050565b6129f6816134b4565b82525050565b612a05816134b4565b82525050565b6000612a1682613322565b612a208185613350565b935083602082028501612a3285613312565b8060005b85811015612a6e5784840389528151612a4f85826129d9565b9450612a5a83613343565b925060208a01995050600181019050612a36565b50829750879550505050505092915050565b612a89816134c6565b82525050565b612a98816134d2565b82525050565b6000612aa98261332d565b612ab38185613361565b9350612ac381856020860161354f565b612acc81613788565b840191505092915050565b6000612ae282613338565b612aec8185613372565b9350612afc81856020860161354f565b612b0581613788565b840191505092915050565b6000612b1b82613338565b612b258185613383565b9350612b3581856020860161354f565b612b3e81613788565b840191505092915050565b6000612b5482613338565b612b5e8185613394565b9350612b6e81856020860161354f565b80840191505092915050565b6000612b87602083613383565b9150612b9282613799565b602082019050919050565b6000612baa603283613383565b9150612bb5826137c2565b604082019050919050565b6000612bcd602583613383565b9150612bd882613811565b604082019050919050565b6000612bf0601c83613383565b9150612bfb82613860565b602082019050919050565b6000612c13602483613383565b9150612c1e82613889565b604082019050919050565b6000612c36601983613383565b9150612c41826138d8565b602082019050919050565b6000612c59602c83613383565b9150612c6482613901565b604082019050919050565b6000612c7c603883613383565b9150612c8782613950565b604082019050919050565b6000612c9f602a83613383565b9150612caa8261399f565b604082019050919050565b6000612cc2602983613383565b9150612ccd826139ee565b604082019050919050565b6000612ce5602e83613383565b9150612cf082613a3d565b604082019050919050565b6000612d08602083613383565b9150612d1382613a8c565b602082019050919050565b6000612d2b603183613383565b9150612d3682613ab5565b604082019050919050565b6000612d4e602c83613383565b9150612d5982613b04565b604082019050919050565b6000612d71602f83613383565b9150612d7c82613b53565b604082019050919050565b6000612d94602183613383565b9150612d9f82613ba2565b604082019050919050565b6000612db7603183613383565b9150612dc282613bf1565b604082019050919050565b6000612dda601783613394565b9150612de582613c40565b601782019050919050565b6000612dfd601183613394565b9150612e0882613c69565b601182019050919050565b6000612e20602f83613383565b9150612e2b82613c92565b604082019050919050565b6000606083016000830151612e4e6000860182612e86565b5060208301518482036020860152612e668282612ad7565b9150506040830151612e7b60408601826129ed565b508091505092915050565b612e8f81613508565b82525050565b612e9e81613508565b82525050565b612ead81613536565b82525050565b6000612ebf8285612b49565b9150612ecb8284612b49565b91508190509392505050565b6000612ee282612dcd565b9150612eee8285612b49565b9150612ef982612df0565b9150612f058284612b49565b91508190509392505050565b6000602082019050612f2660008301846129fc565b92915050565b6000608082019050612f4160008301876129fc565b612f4e60208301866129fc565b612f5b6040830185612ea4565b8181036060830152612f6d8184612a9e565b905095945050505050565b60006020820190508181036000830152612f928184612a0b565b905092915050565b6000602082019050612faf6000830184612a80565b92915050565b6000602082019050612fca6000830184612a8f565b92915050565b60006020820190508181036000830152612fea8184612b10565b905092915050565b6000602082019050818103600083015261300b81612b7a565b9050919050565b6000602082019050818103600083015261302b81612b9d565b9050919050565b6000602082019050818103600083015261304b81612bc0565b9050919050565b6000602082019050818103600083015261306b81612be3565b9050919050565b6000602082019050818103600083015261308b81612c06565b9050919050565b600060208201905081810360008301526130ab81612c29565b9050919050565b600060208201905081810360008301526130cb81612c4c565b9050919050565b600060208201905081810360008301526130eb81612c6f565b9050919050565b6000602082019050818103600083015261310b81612c92565b9050919050565b6000602082019050818103600083015261312b81612cb5565b9050919050565b6000602082019050818103600083015261314b81612cd8565b9050919050565b6000602082019050818103600083015261316b81612cfb565b9050919050565b6000602082019050818103600083015261318b81612d1e565b9050919050565b600060208201905081810360008301526131ab81612d41565b9050919050565b600060208201905081810360008301526131cb81612d64565b9050919050565b600060208201905081810360008301526131eb81612d87565b9050919050565b6000602082019050818103600083015261320b81612daa565b9050919050565b6000602082019050818103600083015261322b81612e13565b9050919050565b60006060820190506132476000830186612e95565b81810360208301526132598185612b10565b905061326860408301846129fc565b949350505050565b60006020820190506132856000830184612ea4565b92915050565b60006132956132a6565b90506132a182826135de565b919050565b6000604051905090565b600067ffffffffffffffff8211156132cb576132ca613745565b5b6132d482613788565b9050602081019050919050565b600067ffffffffffffffff8211156132fc576132fb613745565b5b61330582613788565b9050602081019050919050565b6000819050602082019050919050565b600081519050919050565b600081519050919050565b600081519050919050565b6000602082019050919050565b600082825260208201905092915050565b600082825260208201905092915050565b600082825260208201905092915050565b600082825260208201905092915050565b600081905092915050565b60006133aa82613536565b91506133b583613536565b9250827fffffffffffffffffffffffffffffffffffffffffffffffffffffffffffffffff038211156133ea576133e9613689565b5b828201905092915050565b600061340082613536565b915061340b83613536565b92508261341b5761341a6136b8565b5b828204905092915050565b600061343182613536565b915061343c83613536565b9250817fffffffffffffffffffffffffffffffffffffffffffffffffffffffffffffffff048311821515161561347557613474613689565b5b828202905092915050565b600061348b82613536565b915061349683613536565b9250828210156134a9576134a8613689565b5b828203905092915050565b60006134bf82613516565b9050919050565b60008115159050919050565b6000819050919050565b60007fffffffff0000000000000000000000000000000000000000000000000000000082169050919050565b600061ffff82169050919050565b600073ffffffffffffffffffffffffffffffffffffffff82169050919050565b6000819050919050565b82818337600083830152505050565b60005b8381101561356d578082015181840152602081019050613552565b8381111561357c576000848401525b50505050565b600061358d82613536565b915060008214156135a1576135a0613689565b5b600182039050919050565b600060028204905060018216806135c457607f821691505b602082108114156135d8576135d76136e7565b5b50919050565b6135e782613788565b810181811067ffffffffffffffff8211171561360657613605613745565b5b80604052505050565b600061361a82613536565b91507fffffffffffffffffffffffffffffffffffffffffffffffffffffffffffffffff82141561364d5761364c613689565b5b600182019050919050565b600061366382613536565b915061366e83613536565b92508261367e5761367d6136b8565b5b828206905092915050565b7f4e487b7100000000000000000000000000000000000000000000000000000000600052601160045260246000fd5b7f4e487b7100000000000000000000000000000000000000000000000000000000600052601260045260246000fd5b7f4e487b7100000000000000000000000000000000000000000000000000000000600052602260045260246000fd5b7f4e487b7100000000000000000000000000000000000000000000000000000000600052603260045260246000fd5b7f4e487b7100000000000000000000000000000000000000000000000000000000600052604160045260246000fd5b600080fd5b600080fd5b600080fd5b600080fd5b6000601f19601f8301169050919050565b7f537472696e67733a20686578206c656e67746820696e73756666696369656e74600082015250565b7f4552433732313a207472616e7366657220746f206e6f6e20455243373231526560008201527f63656976657220696d706c656d656e7465720000000000000000000000000000602082015250565b7f4552433732313a207472616e736665722066726f6d20696e636f72726563742060008201527f6f776e6572000000000000000000000000000000000000000000000000000000602082015250565b7f4552433732313a20746f6b656e20616c7265616479206d696e74656400000000600082015250565b7f4552433732313a207472616e7366657220746f20746865207a65726f2061646460008201527f7265737300000000000000000000000000000000000000000000000000000000602082015250565b7f4552433732313a20617070726f766520746f2063616c6c657200000000000000600082015250565b7f4552433732313a206f70657261746f7220717565727920666f72206e6f6e657860008201527f697374656e7420746f6b656e0000000000000000000000000000000000000000602082015250565b7f4552433732313a20617070726f76652063616c6c6572206973206e6f74206f7760008201527f6e6572206e6f7220617070726f76656420666f7220616c6c0000000000000000602082015250565b7f4552433732313a2062616c616e636520717565727920666f7220746865207a6560008201527f726f206164647265737300000000000000000000000000000000000000000000602082015250565b7f4552433732313a206f776e657220717565727920666f72206e6f6e657869737460008201527f656e7420746f6b656e0000000000000000000000000000000000000000000000602082015250565b7f45524337323155524953746f726167653a2055524920736574206f66206e6f6e60008201527f6578697374656e7420746f6b656e000000000000000000000000000000000000602082015250565b7f4552433732313a206d696e7420746f20746865207a65726f2061646472657373600082015250565b7f45524337323155524953746f726167653a2055524920717565727920666f722060008201527f6e6f6e6578697374656e7420746f6b656e000000000000000000000000000000602082015250565b7f4552433732313a20617070726f76656420717565727920666f72206e6f6e657860008201527f697374656e7420746f6b656e0000000000000000000000000000000000000000602082015250565b7f4552433732314d657461646174613a2055524920717565727920666f72206e6f60008201527f6e6578697374656e7420746f6b656e0000000000000000000000000000000000602082015250565b7f4552433732313a20617070726f76616c20746f2063757272656e74206f776e6560008201527f7200000000000000000000000000000000000000000000000000000000000000602082015250565b7f4552433732313a207472616e736665722063616c6c6572206973206e6f74206f60008201527f776e6572206e6f7220617070726f766564000000000000000000000000000000602082015250565b7f416363657373436f6e74726f6c3a206163636f756e7420000000000000000000600082015250565b7f206973206d697373696e6720726f6c6520000000000000000000000000000000600082015250565b7f416363657373436f6e74726f6c3a2063616e206f6e6c792072656e6f756e636560008201527f20726f6c657320666f722073656c660000000000000000000000000000000000602082015250565b613cea816134b4565b8114613cf557600080fd5b50565b613d01816134c6565b8114613d0c57600080fd5b50565b613d18816134d2565b8114613d2357600080fd5b50565b613d2f816134dc565b8114613d3a57600080fd5b50565b613d4681613536565b8114613d5157600080fd5b5056fea2646970667358221220a67dc91888869c105c0998009c45ccd6d3169ffcec96a2e216b3ffa71a32470d64736f6c63430008070033",
  "linkReferences": {},
  "deployedLinkReferences": {}
}